{
  "_format": "hh-sol-artifact-1",
  "contractName": "WeaponMarket",
  "sourceName": "contracts/WeaponMarket.sol",
  "abi": [
    {
      "anonymous": false,
      "inputs": [
        {
          "indexed": true,
          "internalType": "address",
          "name": "owner",
          "type": "address"
        },
        {
          "indexed": true,
          "internalType": "address",
          "name": "approved",
          "type": "address"
        },
        {
          "indexed": true,
          "internalType": "uint256",
          "name": "tokenId",
          "type": "uint256"
        }
      ],
      "name": "Approval",
      "type": "event"
    },
    {
      "anonymous": false,
      "inputs": [
        {
          "indexed": true,
          "internalType": "address",
          "name": "owner",
          "type": "address"
        },
        {
          "indexed": true,
          "internalType": "address",
          "name": "operator",
          "type": "address"
        },
        {
          "indexed": false,
          "internalType": "bool",
          "name": "approved",
          "type": "bool"
        }
      ],
      "name": "ApprovalForAll",
      "type": "event"
    },
    {
      "anonymous": false,
      "inputs": [
        {
          "indexed": true,
          "internalType": "address",
          "name": "from",
          "type": "address"
        },
        {
          "indexed": true,
          "internalType": "address",
          "name": "to",
          "type": "address"
        },
        {
          "indexed": true,
          "internalType": "uint256",
          "name": "tokenId",
          "type": "uint256"
        }
      ],
      "name": "Transfer",
      "type": "event"
    },
    {
      "inputs": [
        {
          "internalType": "address",
          "name": "to",
          "type": "address"
        },
        {
          "internalType": "uint256",
          "name": "tokenId",
          "type": "uint256"
        }
      ],
      "name": "approve",
      "outputs": [],
      "stateMutability": "nonpayable",
      "type": "function"
    },
    {
      "inputs": [
        {
          "internalType": "address",
          "name": "_addr",
          "type": "address"
        }
      ],
      "name": "balanceOf",
      "outputs": [
        {
          "internalType": "uint256",
          "name": "",
          "type": "uint256"
        }
      ],
      "stateMutability": "view",
      "type": "function"
    },
    {
      "inputs": [
        {
          "internalType": "address",
          "name": "player",
          "type": "address"
        }
      ],
      "name": "createNewWeapon",
      "outputs": [
        {
          "internalType": "uint8",
          "name": "",
          "type": "uint8"
        }
      ],
      "stateMutability": "nonpayable",
      "type": "function"
    },
    {
      "inputs": [
        {
          "internalType": "address",
          "name": "_creator",
          "type": "address"
        },
        {
          "internalType": "uint256",
          "name": "_weaponId",
          "type": "uint256"
        },
        {
          "internalType": "uint256",
          "name": "_price",
          "type": "uint256"
        }
      ],
      "name": "createSale",
      "outputs": [],
      "stateMutability": "nonpayable",
      "type": "function"
    },
    {
      "inputs": [
        {
          "internalType": "uint256",
          "name": "_weaponId",
          "type": "uint256"
        }
      ],
      "name": "damage",
      "outputs": [],
      "stateMutability": "nonpayable",
      "type": "function"
    },
    {
      "inputs": [
        {
          "internalType": "uint256",
          "name": "_weaponId",
          "type": "uint256"
        }
      ],
      "name": "durabilityOf",
      "outputs": [
        {
          "internalType": "uint8",
          "name": "",
          "type": "uint8"
        }
      ],
      "stateMutability": "view",
      "type": "function"
    },
    {
      "inputs": [],
      "name": "getAccountEth",
      "outputs": [
        {
          "internalType": "uint256",
          "name": "",
          "type": "uint256"
        }
      ],
      "stateMutability": "view",
      "type": "function"
    },
    {
      "inputs": [
        {
          "internalType": "uint256",
          "name": "tokenId",
          "type": "uint256"
        }
      ],
      "name": "getApproved",
      "outputs": [
        {
          "internalType": "address",
          "name": "",
          "type": "address"
        }
      ],
      "stateMutability": "view",
      "type": "function"
    },
    {
      "inputs": [
        {
          "internalType": "uint256",
          "name": "_weaponId",
          "type": "uint256"
        }
      ],
      "name": "getPrice",
      "outputs": [
        {
          "internalType": "uint256",
          "name": "",
          "type": "uint256"
        }
      ],
      "stateMutability": "view",
      "type": "function"
    },
    {
      "inputs": [
        {
          "internalType": "address",
          "name": "owner",
          "type": "address"
        },
        {
          "internalType": "address",
          "name": "operator",
          "type": "address"
        }
      ],
      "name": "isApprovedForAll",
      "outputs": [
        {
          "internalType": "bool",
          "name": "",
          "type": "bool"
        }
      ],
      "stateMutability": "view",
      "type": "function"
    },
    {
      "inputs": [],
      "name": "isOwner",
      "outputs": [
        {
          "internalType": "bool",
          "name": "",
          "type": "bool"
        }
      ],
      "stateMutability": "view",
      "type": "function"
    },
    {
      "inputs": [],
      "name": "name",
      "outputs": [
        {
          "internalType": "string",
          "name": "",
          "type": "string"
        }
      ],
      "stateMutability": "view",
      "type": "function"
    },
    {
      "inputs": [],
      "name": "owner",
      "outputs": [
        {
          "internalType": "address",
          "name": "",
          "type": "address"
        }
      ],
      "stateMutability": "view",
      "type": "function"
    },
    {
      "inputs": [
        {
          "internalType": "uint256",
          "name": "_weaponId",
          "type": "uint256"
        }
      ],
      "name": "ownerOf",
      "outputs": [
        {
          "internalType": "address",
          "name": "",
          "type": "address"
        }
      ],
      "stateMutability": "view",
      "type": "function"
    },
    {
      "inputs": [
        {
          "internalType": "uint256",
          "name": "_desiredWeaponId",
          "type": "uint256"
        }
      ],
      "name": "purchaseWeapon",
      "outputs": [],
      "stateMutability": "payable",
      "type": "function"
    },
    {
      "inputs": [
        {
          "internalType": "address",
          "name": "_requester",
          "type": "address"
        },
        {
          "internalType": "uint256",
          "name": "_weaponId",
          "type": "uint256"
        }
      ],
      "name": "repairWeapon",
      "outputs": [],
      "stateMutability": "nonpayable",
      "type": "function"
    },
    {
      "inputs": [
        {
          "internalType": "address",
          "name": "from",
          "type": "address"
        },
        {
          "internalType": "address",
          "name": "to",
          "type": "address"
        },
        {
          "internalType": "uint256",
          "name": "tokenId",
          "type": "uint256"
        }
      ],
      "name": "safeTransferFrom",
      "outputs": [],
      "stateMutability": "nonpayable",
      "type": "function"
    },
    {
      "inputs": [
        {
          "internalType": "address",
          "name": "from",
          "type": "address"
        },
        {
          "internalType": "address",
          "name": "to",
          "type": "address"
        },
        {
          "internalType": "uint256",
          "name": "tokenId",
          "type": "uint256"
        },
        {
          "internalType": "bytes",
          "name": "data",
          "type": "bytes"
        }
      ],
      "name": "safeTransferFrom",
      "outputs": [],
      "stateMutability": "nonpayable",
      "type": "function"
    },
    {
      "inputs": [
        {
          "internalType": "address",
          "name": "operator",
          "type": "address"
        },
        {
          "internalType": "bool",
          "name": "approved",
          "type": "bool"
        }
      ],
      "name": "setApprovalForAll",
      "outputs": [],
      "stateMutability": "nonpayable",
      "type": "function"
    },
    {
      "inputs": [
        {
          "internalType": "uint256",
          "name": "_weaponId",
          "type": "uint256"
        }
      ],
      "name": "setWeaponOwner",
      "outputs": [],
      "stateMutability": "nonpayable",
      "type": "function"
    },
    {
      "inputs": [
        {
          "internalType": "bytes4",
          "name": "interfaceId",
          "type": "bytes4"
        }
      ],
      "name": "supportsInterface",
      "outputs": [
        {
          "internalType": "bool",
          "name": "",
          "type": "bool"
        }
      ],
      "stateMutability": "view",
      "type": "function"
    },
    {
      "inputs": [],
      "name": "symbol",
      "outputs": [
        {
          "internalType": "string",
          "name": "",
          "type": "string"
        }
      ],
      "stateMutability": "view",
      "type": "function"
    },
    {
      "inputs": [
        {
          "internalType": "uint256",
          "name": "tokenId",
          "type": "uint256"
        }
      ],
      "name": "tokenURI",
      "outputs": [
        {
          "internalType": "string",
          "name": "",
          "type": "string"
        }
      ],
      "stateMutability": "view",
      "type": "function"
    },
    {
      "inputs": [
        {
          "internalType": "address",
          "name": "from",
          "type": "address"
        },
        {
          "internalType": "address",
          "name": "to",
          "type": "address"
        },
        {
          "internalType": "uint256",
          "name": "tokenId",
          "type": "uint256"
        }
      ],
      "name": "transferFrom",
      "outputs": [],
      "stateMutability": "nonpayable",
      "type": "function"
    },
    {
      "inputs": [
        {
          "internalType": "uint256",
          "name": "",
          "type": "uint256"
        }
      ],
      "name": "weapons",
      "outputs": [
        {
          "internalType": "uint256",
          "name": "tokenId",
          "type": "uint256"
        },
        {
          "internalType": "uint8",
          "name": "maxDurability",
          "type": "uint8"
        },
        {
          "internalType": "uint8",
          "name": "durability",
          "type": "uint8"
        }
      ],
      "stateMutability": "view",
      "type": "function"
    },
    {
      "inputs": [],
      "name": "withdrawBalance",
      "outputs": [],
      "stateMutability": "nonpayable",
      "type": "function"
    }
  ],
  "bytecode": "0x60806040523480156200001157600080fd5b506040518060400160405280600681526020017f576561706f6e00000000000000000000000000000000000000000000000000008152506040518060400160405280600381526020017f57504e0000000000000000000000000000000000000000000000000000000000815250816000908051906020019062000096929190620000f9565b508060019080519060200190620000af929190620000f9565b50505033600a60006101000a81548173ffffffffffffffffffffffffffffffffffffffff021916908373ffffffffffffffffffffffffffffffffffffffff1602179055506200020e565b8280546200010790620001d8565b90600052602060002090601f0160209004810192826200012b576000855562000177565b82601f106200014657805160ff191683800117855562000177565b8280016001018555821562000177579182015b828111156200017657825182559160200191906001019062000159565b5b5090506200018691906200018a565b5090565b5b80821115620001a55760008160009055506001016200018b565b5090565b7f4e487b7100000000000000000000000000000000000000000000000000000000600052602260045260246000fd5b60006002820490506001821680620001f157607f821691505b60208210811415620002085762000207620001a9565b5b50919050565b6132c9806200021e6000396000f3fe6080604052600436106101815760003560e01c8063774e7305116100d1578063ab7fb50e1161008a578063c87b56dd11610064578063c87b56dd14610585578063e0feafc1146105c2578063e7572230146105eb578063e985e9c51461062857610181565b8063ab7fb50e146104e2578063b88d4fde1461051f578063ba882af81461054857610181565b8063774e7305146103e65780638da5cb5b1461040f5780638f32d59b1461043a57806395d89b41146104655780639f161af214610490578063a22cb465146104b957610181565b806342842e0e1161013e5780635e8d679a116101185780635e8d679a1461032a5780635fd8c710146103555780636352211e1461036c57806370a08231146103a957610181565b806342842e0e14610299578063555e73c8146102c2578063573265dd1461030157610181565b806301ffc9a71461018657806306fdde03146101c3578063081812fc146101ee578063095ea7b31461022b578063103affb11461025457806323b872dd14610270575b600080fd5b34801561019257600080fd5b506101ad60048036038101906101a89190612318565b610665565b6040516101ba9190612360565b60405180910390f35b3480156101cf57600080fd5b506101d8610747565b6040516101e59190612414565b60405180910390f35b3480156101fa57600080fd5b506102156004803603810190610210919061246c565b6107d9565b60405161022291906124da565b60405180910390f35b34801561023757600080fd5b50610252600480360381019061024d9190612521565b61081f565b005b61026e6004803603810190610269919061246c565b610937565b005b34801561027c57600080fd5b5061029760048036038101906102929190612561565b610b23565b005b3480156102a557600080fd5b506102c060048036038101906102bb9190612561565b610b83565b005b3480156102ce57600080fd5b506102e960048036038101906102e4919061246c565b610ba3565b6040516102f8939291906125df565b60405180910390f35b34801561030d57600080fd5b506103286004803603810190610323919061246c565b610bf7565b005b34801561033657600080fd5b5061033f610c54565b60405161034c9190612616565b60405180910390f35b34801561036157600080fd5b5061036a610c9b565b005b34801561037857600080fd5b50610393600480360381019061038e919061246c565b610e32565b6040516103a091906124da565b60405180910390f35b3480156103b557600080fd5b506103d060048036038101906103cb9190612631565b610e6f565b6040516103dd9190612616565b60405180910390f35b3480156103f257600080fd5b5061040d6004803603810190610408919061246c565b610eb8565b005b34801561041b57600080fd5b50610424610f62565b60405161043191906124da565b60405180910390f35b34801561044657600080fd5b5061044f610f8c565b60405161045c9190612360565b60405180910390f35b34801561047157600080fd5b5061047a610fe4565b6040516104879190612414565b60405180910390f35b34801561049c57600080fd5b506104b760048036038101906104b2919061265e565b611076565b005b3480156104c557600080fd5b506104e060048036038101906104db91906126dd565b611114565b005b3480156104ee57600080fd5b506105096004803603810190610504919061246c565b61112a565b604051610516919061271d565b60405180910390f35b34801561052b57600080fd5b506105466004803603810190610541919061286d565b611166565b005b34801561055457600080fd5b5061056f600480360381019061056a9190612631565b6111c8565b60405161057c919061271d565b60405180910390f35b34801561059157600080fd5b506105ac60048036038101906105a7919061246c565b6112ac565b6040516105b99190612414565b60405180910390f35b3480156105ce57600080fd5b506105e960048036038101906105e49190612521565b611314565b005b3480156105f757600080fd5b50610612600480360381019061060d919061246c565b61146d565b60405161061f9190612616565b60405180910390f35b34801561063457600080fd5b5061064f600480360381019061064a91906128f0565b61149d565b60405161065c9190612360565b60405180910390f35b60007f80ac58cd000000000000000000000000000000000000000000000000000000007bffffffffffffffffffffffffffffffffffffffffffffffffffffffff1916827bffffffffffffffffffffffffffffffffffffffffffffffffffffffff1916148061073057507f5b5e139f000000000000000000000000000000000000000000000000000000007bffffffffffffffffffffffffffffffffffffffffffffffffffffffff1916827bffffffffffffffffffffffffffffffffffffffffffffffffffffffff1916145b80610740575061073f82611531565b5b9050919050565b6060600080546107569061295f565b80601f01602080910402602001604051908101604052809291908181526020018280546107829061295f565b80156107cf5780601f106107a4576101008083540402835291602001916107cf565b820191906000526020600020905b8154815290600101906020018083116107b257829003601f168201915b5050505050905090565b60006107e48261159b565b6004600083815260200190815260200160002060009054906101000a900473ffffffffffffffffffffffffffffffffffffffff169050919050565b600061082a826115e6565b90508073ffffffffffffffffffffffffffffffffffffffff168373ffffffffffffffffffffffffffffffffffffffff16141561089b576040517f08c379a000000000000000000000000000000000000000000000000000000000815260040161089290612a03565b60405180910390fd5b8073ffffffffffffffffffffffffffffffffffffffff166108ba611698565b73ffffffffffffffffffffffffffffffffffffffff1614806108e957506108e8816108e3611698565b61149d565b5b610928576040517f08c379a000000000000000000000000000000000000000000000000000000000815260040161091f90612a95565b60405180910390fd5b61093283836116a0565b505050565b61094081611759565b1561094a57600080fd5b66038d7ea4c68000600b6000838152602001908152602001600020546109709190612ae4565b34101561097c57600080fd5b600b600082815260200190815260200160002054600c60006007600085815260200190815260200160002060009054906101000a900473ffffffffffffffffffffffffffffffffffffffff1673ffffffffffffffffffffffffffffffffffffffff1673ffffffffffffffffffffffffffffffffffffffff1681526020019081526020016000206000828254610a119190612b3e565b92505081905550600160086000610a2784610e32565b73ffffffffffffffffffffffffffffffffffffffff1673ffffffffffffffffffffffffffffffffffffffff1681526020019081526020016000206000828254610a709190612b94565b92505081905550336007600083815260200190815260200160002060006101000a81548173ffffffffffffffffffffffffffffffffffffffff021916908373ffffffffffffffffffffffffffffffffffffffff1602179055506001600860003373ffffffffffffffffffffffffffffffffffffffff1673ffffffffffffffffffffffffffffffffffffffff1681526020019081526020016000206000828254610b199190612b3e565b9250508190555050565b610b34610b2e611698565b82611778565b610b73576040517f08c379a0000000000000000000000000000000000000000000000000000000008152600401610b6a90612c3a565b60405180910390fd5b610b7e83838361180d565b505050565b610b9e83838360405180602001604052806000815250611166565b505050565b60098181548110610bb357600080fd5b90600052602060002090600202016000915090508060000154908060010160009054906101000a900460ff16908060010160019054906101000a900460ff16905083565b600560098281548110610c0d57610c0c612c5a565b5b906000526020600020906002020160010160018282829054906101000a900460ff16610c399190612c89565b92506101000a81548160ff021916908360ff16021790555050565b6000600c60003373ffffffffffffffffffffffffffffffffffffffff1673ffffffffffffffffffffffffffffffffffffffff16815260200190815260200160002054905090565b60003373ffffffffffffffffffffffffffffffffffffffff1666038d7ea4c68000600c60003373ffffffffffffffffffffffffffffffffffffffff1673ffffffffffffffffffffffffffffffffffffffff16815260200190815260200160002054610d069190612ae4565b600067ffffffffffffffff811115610d2157610d20612742565b5b6040519080825280601f01601f191660200182016040528015610d535781602001600182028036833780820191505090505b50604051610d619190612d04565b60006040518083038185875af1925050503d8060008114610d9e576040519150601f19603f3d011682016040523d82523d6000602084013e610da3565b606091505b505090508015610df057610deb6040518060400160405280601481526020017f5472616e73666572207375636365737365642121000000000000000000000000815250611a69565b610e2f565b610e2e6040518060400160405280600881526020017f4661696c65642121000000000000000000000000000000000000000000000000815250611a69565b5b50565b60006007600083815260200190815260200160002060009054906101000a900473ffffffffffffffffffffffffffffffffffffffff169050919050565b6000600860008373ffffffffffffffffffffffffffffffffffffffff1673ffffffffffffffffffffffffffffffffffffffff168152602001908152602001600020549050919050565b336007600083815260200190815260200160002060006101000a81548173ffffffffffffffffffffffffffffffffffffffff021916908373ffffffffffffffffffffffffffffffffffffffff160217905550600860003373ffffffffffffffffffffffffffffffffffffffff1673ffffffffffffffffffffffffffffffffffffffff1681526020019081526020016000206000815480929190610f5a90612d1b565b919050555050565b6000600a60009054906101000a900473ffffffffffffffffffffffffffffffffffffffff16905090565b6000600a60009054906101000a900473ffffffffffffffffffffffffffffffffffffffff1673ffffffffffffffffffffffffffffffffffffffff163373ffffffffffffffffffffffffffffffffffffffff1614905090565b606060018054610ff39061295f565b80601f016020809104026020016040519081016040528092919081815260200182805461101f9061295f565b801561106c5780601f106110415761010080835404028352916020019161106c565b820191906000526020600020905b81548152906001019060200180831161104f57829003601f168201915b5050505050905090565b82826007600082815260200190815260200160002060009054906101000a900473ffffffffffffffffffffffffffffffffffffffff1673ffffffffffffffffffffffffffffffffffffffff168273ffffffffffffffffffffffffffffffffffffffff16146110e357600080fd5b6110ec84611759565b6110f557600080fd5b82600b6000868152602001908152602001600020819055505050505050565b61112661111f611698565b8383611b02565b5050565b6000600982815481106111405761113f612c5a565b5b906000526020600020906002020160010160019054906101000a900460ff169050919050565b611177611171611698565b83611778565b6111b6576040517f08c379a00000000000000000000000000000000000000000000000000000000081526004016111ad90612c3a565b60405180910390fd5b6111c284848484611c6f565b50505050565b6000806111d56006611ccb565b90506111e4838260ff16611ce6565b600960405180606001604052808360ff1681526020018360ff6112079190612c89565b60ff1681526020018360ff61121c9190612c89565b60ff1681525090806001815401808255809150506001900390600052602060002090600202016000909190919091506000820151816000015560208201518160010160006101000a81548160ff021916908360ff16021790555060408201518160010160016101000a81548160ff021916908360ff16021790555050506112a36006611ea8565b80915050919050565b60606112b78261159b565b60006112c1611edb565b905060008151116112e1576040518060200160405280600081525061130c565b806112eb84611ef2565b6040516020016112fc929190612da0565b6040516020818303038152906040525b915050919050565b81816007600082815260200190815260200160002060009054906101000a900473ffffffffffffffffffffffffffffffffffffffff1673ffffffffffffffffffffffffffffffffffffffff168273ffffffffffffffffffffffffffffffffffffffff161461138157600080fd5b6009838154811061139557611394612c5a565b5b906000526020600020906002020160010160019054906101000a900460ff1660ff16600984815481106113cb576113ca612c5a565b5b906000526020600020906002020160010160009054906101000a900460ff1660ff16116113f757600080fd5b6009838154811061140b5761140a612c5a565b5b906000526020600020906002020160010160009054906101000a900460ff166009848154811061143e5761143d612c5a565b5b906000526020600020906002020160010160016101000a81548160ff021916908360ff16021790555050505050565b600061147882611759565b1561148257600080fd5b600b6000838152602001908152602001600020549050919050565b6000600560008473ffffffffffffffffffffffffffffffffffffffff1673ffffffffffffffffffffffffffffffffffffffff16815260200190815260200160002060008373ffffffffffffffffffffffffffffffffffffffff1673ffffffffffffffffffffffffffffffffffffffff16815260200190815260200160002060009054906101000a900460ff16905092915050565b60007f01ffc9a7000000000000000000000000000000000000000000000000000000007bffffffffffffffffffffffffffffffffffffffffffffffffffffffff1916827bffffffffffffffffffffffffffffffffffffffffffffffffffffffff1916149050919050565b6115a481612053565b6115e3576040517f08c379a00000000000000000000000000000000000000000000000000000000081526004016115da90612e10565b60405180910390fd5b50565b6000806002600084815260200190815260200160002060009054906101000a900473ffffffffffffffffffffffffffffffffffffffff169050600073ffffffffffffffffffffffffffffffffffffffff168173ffffffffffffffffffffffffffffffffffffffff16141561168f576040517f08c379a000000000000000000000000000000000000000000000000000000000815260040161168690612e10565b60405180910390fd5b80915050919050565b600033905090565b816004600083815260200190815260200160002060006101000a81548173ffffffffffffffffffffffffffffffffffffffff021916908373ffffffffffffffffffffffffffffffffffffffff160217905550808273ffffffffffffffffffffffffffffffffffffffff16611713836115e6565b73ffffffffffffffffffffffffffffffffffffffff167f8c5be1e5ebec7d5bd14f71427d1e84f3dd0314c0f7b2291e5b200ac8c7c3b92560405160405180910390a45050565b600080600b600084815260200190815260200160002054149050919050565b600080611784836115e6565b90508073ffffffffffffffffffffffffffffffffffffffff168473ffffffffffffffffffffffffffffffffffffffff1614806117c657506117c5818561149d565b5b8061180457508373ffffffffffffffffffffffffffffffffffffffff166117ec846107d9565b73ffffffffffffffffffffffffffffffffffffffff16145b91505092915050565b8273ffffffffffffffffffffffffffffffffffffffff1661182d826115e6565b73ffffffffffffffffffffffffffffffffffffffff1614611883576040517f08c379a000000000000000000000000000000000000000000000000000000000815260040161187a90612ea2565b60405180910390fd5b600073ffffffffffffffffffffffffffffffffffffffff168273ffffffffffffffffffffffffffffffffffffffff1614156118f3576040517f08c379a00000000000000000000000000000000000000000000000000000000081526004016118ea90612f34565b60405180910390fd5b6118fe8383836120bf565b6001600860008573ffffffffffffffffffffffffffffffffffffffff1673ffffffffffffffffffffffffffffffffffffffff168152602001908152602001600020600082825461194e9190612b94565b925050819055506001600860008473ffffffffffffffffffffffffffffffffffffffff1673ffffffffffffffffffffffffffffffffffffffff16815260200190815260200160002060008282546119a59190612b3e565b92505081905550816007600083815260200190815260200160002060006101000a81548173ffffffffffffffffffffffffffffffffffffffff021916908373ffffffffffffffffffffffffffffffffffffffff160217905550808273ffffffffffffffffffffffffffffffffffffffff168473ffffffffffffffffffffffffffffffffffffffff167fddf252ad1be2c89b69c2b068fc378daa952ba7f163c4a11628f55a4df523b3ef60405160405180910390a4611a648383836120c4565b505050565b611aff81604051602401611a7d9190612414565b6040516020818303038152906040527f41304fac000000000000000000000000000000000000000000000000000000007bffffffffffffffffffffffffffffffffffffffffffffffffffffffff19166020820180517bffffffffffffffffffffffffffffffffffffffffffffffffffffffff83818316178352505050506120c9565b50565b8173ffffffffffffffffffffffffffffffffffffffff168373ffffffffffffffffffffffffffffffffffffffff161415611b71576040517f08c379a0000000000000000000000000000000000000000000000000000000008152600401611b6890612fa0565b60405180910390fd5b80600560008573ffffffffffffffffffffffffffffffffffffffff1673ffffffffffffffffffffffffffffffffffffffff16815260200190815260200160002060008473ffffffffffffffffffffffffffffffffffffffff1673ffffffffffffffffffffffffffffffffffffffff16815260200190815260200160002060006101000a81548160ff0219169083151502179055508173ffffffffffffffffffffffffffffffffffffffff168373ffffffffffffffffffffffffffffffffffffffff167f17307eab39ab6107e8899845ad3d59bd9653f200f220920489ca2b5937696c3183604051611c629190612360565b60405180910390a3505050565b611c7a84848461180d565b611c86848484846120f2565b611cc5576040517f08c379a0000000000000000000000000000000000000000000000000000000008152600401611cbc90613032565b60405180910390fd5b50505050565b60008160000160009054906101000a900460ff169050919050565b600073ffffffffffffffffffffffffffffffffffffffff168273ffffffffffffffffffffffffffffffffffffffff161415611d56576040517f08c379a0000000000000000000000000000000000000000000000000000000008152600401611d4d9061309e565b60405180910390fd5b611d5f81612053565b15611d9f576040517f08c379a0000000000000000000000000000000000000000000000000000000008152600401611d969061310a565b60405180910390fd5b6001600860008473ffffffffffffffffffffffffffffffffffffffff1673ffffffffffffffffffffffffffffffffffffffff1681526020019081526020016000206000828254611def9190612b3e565b92505081905550816007600083815260200190815260200160002060006101000a81548173ffffffffffffffffffffffffffffffffffffffff021916908373ffffffffffffffffffffffffffffffffffffffff160217905550808273ffffffffffffffffffffffffffffffffffffffff16600073ffffffffffffffffffffffffffffffffffffffff167fddf252ad1be2c89b69c2b068fc378daa952ba7f163c4a11628f55a4df523b3ef60405160405180910390a45050565b60018160000160008282829054906101000a900460ff160192506101000a81548160ff021916908360ff16021790555050565b606060405180602001604052806000815250905090565b60606000821415611f3a576040518060400160405280600181526020017f3000000000000000000000000000000000000000000000000000000000000000815250905061204e565b600082905060005b60008214611f6c578080611f5590612d1b565b915050600a82611f659190613159565b9150611f42565b60008167ffffffffffffffff811115611f8857611f87612742565b5b6040519080825280601f01601f191660200182016040528015611fba5781602001600182028036833780820191505090505b5090505b6000851461204757600182611fd39190612b94565b9150600a85611fe2919061318a565b6030611fee9190612b3e565b60f81b81838151811061200457612003612c5a565b5b60200101907effffffffffffffffffffffffffffffffffffffffffffffffffffffffffffff1916908160001a905350600a856120409190613159565b9450611fbe565b8093505050505b919050565b60008073ffffffffffffffffffffffffffffffffffffffff166002600084815260200190815260200160002060009054906101000a900473ffffffffffffffffffffffffffffffffffffffff1673ffffffffffffffffffffffffffffffffffffffff1614159050919050565b505050565b505050565b60008151905060006a636f6e736f6c652e6c6f679050602083016000808483855afa5050505050565b60006121138473ffffffffffffffffffffffffffffffffffffffff16612289565b1561227c578373ffffffffffffffffffffffffffffffffffffffff1663150b7a0261213c611698565b8786866040518563ffffffff1660e01b815260040161215e9493929190613205565b602060405180830381600087803b15801561217857600080fd5b505af19250505080156121a957506040513d601f19601f820116820180604052508101906121a69190613266565b60015b61222c573d80600081146121d9576040519150601f19603f3d011682016040523d82523d6000602084013e6121de565b606091505b50600081511415612224576040517f08c379a000000000000000000000000000000000000000000000000000000000815260040161221b90613032565b60405180910390fd5b805181602001fd5b63150b7a0260e01b7bffffffffffffffffffffffffffffffffffffffffffffffffffffffff1916817bffffffffffffffffffffffffffffffffffffffffffffffffffffffff191614915050612281565b600190505b949350505050565b6000808273ffffffffffffffffffffffffffffffffffffffff163b119050919050565b6000604051905090565b600080fd5b600080fd5b60007fffffffff0000000000000000000000000000000000000000000000000000000082169050919050565b6122f5816122c0565b811461230057600080fd5b50565b600081359050612312816122ec565b92915050565b60006020828403121561232e5761232d6122b6565b5b600061233c84828501612303565b91505092915050565b60008115159050919050565b61235a81612345565b82525050565b60006020820190506123756000830184612351565b92915050565b600081519050919050565b600082825260208201905092915050565b60005b838110156123b557808201518184015260208101905061239a565b838111156123c4576000848401525b50505050565b6000601f19601f8301169050919050565b60006123e68261237b565b6123f08185612386565b9350612400818560208601612397565b612409816123ca565b840191505092915050565b6000602082019050818103600083015261242e81846123db565b905092915050565b6000819050919050565b61244981612436565b811461245457600080fd5b50565b60008135905061246681612440565b92915050565b600060208284031215612482576124816122b6565b5b600061249084828501612457565b91505092915050565b600073ffffffffffffffffffffffffffffffffffffffff82169050919050565b60006124c482612499565b9050919050565b6124d4816124b9565b82525050565b60006020820190506124ef60008301846124cb565b92915050565b6124fe816124b9565b811461250957600080fd5b50565b60008135905061251b816124f5565b92915050565b60008060408385031215612538576125376122b6565b5b60006125468582860161250c565b925050602061255785828601612457565b9150509250929050565b60008060006060848603121561257a576125796122b6565b5b60006125888682870161250c565b93505060206125998682870161250c565b92505060406125aa86828701612457565b9150509250925092565b6125bd81612436565b82525050565b600060ff82169050919050565b6125d9816125c3565b82525050565b60006060820190506125f460008301866125b4565b61260160208301856125d0565b61260e60408301846125d0565b949350505050565b600060208201905061262b60008301846125b4565b92915050565b600060208284031215612647576126466122b6565b5b60006126558482850161250c565b91505092915050565b600080600060608486031215612677576126766122b6565b5b60006126858682870161250c565b935050602061269686828701612457565b92505060406126a786828701612457565b9150509250925092565b6126ba81612345565b81146126c557600080fd5b50565b6000813590506126d7816126b1565b92915050565b600080604083850312156126f4576126f36122b6565b5b60006127028582860161250c565b9250506020612713858286016126c8565b9150509250929050565b600060208201905061273260008301846125d0565b92915050565b600080fd5b600080fd5b7f4e487b7100000000000000000000000000000000000000000000000000000000600052604160045260246000fd5b61277a826123ca565b810181811067ffffffffffffffff8211171561279957612798612742565b5b80604052505050565b60006127ac6122ac565b90506127b88282612771565b919050565b600067ffffffffffffffff8211156127d8576127d7612742565b5b6127e1826123ca565b9050602081019050919050565b82818337600083830152505050565b600061281061280b846127bd565b6127a2565b90508281526020810184848401111561282c5761282b61273d565b5b6128378482856127ee565b509392505050565b600082601f83011261285457612853612738565b5b81356128648482602086016127fd565b91505092915050565b60008060008060808587031215612887576128866122b6565b5b60006128958782880161250c565b94505060206128a68782880161250c565b93505060406128b787828801612457565b925050606085013567ffffffffffffffff8111156128d8576128d76122bb565b5b6128e48782880161283f565b91505092959194509250565b60008060408385031215612907576129066122b6565b5b60006129158582860161250c565b92505060206129268582860161250c565b9150509250929050565b7f4e487b7100000000000000000000000000000000000000000000000000000000600052602260045260246000fd5b6000600282049050600182168061297757607f821691505b6020821081141561298b5761298a612930565b5b50919050565b7f4552433732313a20617070726f76616c20746f2063757272656e74206f776e6560008201527f7200000000000000000000000000000000000000000000000000000000000000602082015250565b60006129ed602183612386565b91506129f882612991565b604082019050919050565b60006020820190508181036000830152612a1c816129e0565b9050919050565b7f4552433732313a20617070726f76652063616c6c6572206973206e6f7420746f60008201527f6b656e206f776e6572206e6f7220617070726f76656420666f7220616c6c0000602082015250565b6000612a7f603e83612386565b9150612a8a82612a23565b604082019050919050565b60006020820190508181036000830152612aae81612a72565b9050919050565b7f4e487b7100000000000000000000000000000000000000000000000000000000600052601160045260246000fd5b6000612aef82612436565b9150612afa83612436565b9250817fffffffffffffffffffffffffffffffffffffffffffffffffffffffffffffffff0483118215151615612b3357612b32612ab5565b5b828202905092915050565b6000612b4982612436565b9150612b5483612436565b9250827fffffffffffffffffffffffffffffffffffffffffffffffffffffffffffffffff03821115612b8957612b88612ab5565b5b828201905092915050565b6000612b9f82612436565b9150612baa83612436565b925082821015612bbd57612bbc612ab5565b5b828203905092915050565b7f4552433732313a2063616c6c6572206973206e6f7420746f6b656e206f776e6560008201527f72206e6f7220617070726f766564000000000000000000000000000000000000602082015250565b6000612c24602e83612386565b9150612c2f82612bc8565b604082019050919050565b60006020820190508181036000830152612c5381612c17565b9050919050565b7f4e487b7100000000000000000000000000000000000000000000000000000000600052603260045260246000fd5b6000612c94826125c3565b9150612c9f836125c3565b925082821015612cb257612cb1612ab5565b5b828203905092915050565b600081519050919050565b600081905092915050565b6000612cde82612cbd565b612ce88185612cc8565b9350612cf8818560208601612397565b80840191505092915050565b6000612d108284612cd3565b915081905092915050565b6000612d2682612436565b91507fffffffffffffffffffffffffffffffffffffffffffffffffffffffffffffffff821415612d5957612d58612ab5565b5b600182019050919050565b600081905092915050565b6000612d7a8261237b565b612d848185612d64565b9350612d94818560208601612397565b80840191505092915050565b6000612dac8285612d6f565b9150612db88284612d6f565b91508190509392505050565b7f4552433732313a20696e76616c696420746f6b656e2049440000000000000000600082015250565b6000612dfa601883612386565b9150612e0582612dc4565b602082019050919050565b60006020820190508181036000830152612e2981612ded565b9050919050565b7f4552433732313a207472616e736665722066726f6d20696e636f72726563742060008201527f6f776e6572000000000000000000000000000000000000000000000000000000602082015250565b6000612e8c602583612386565b9150612e9782612e30565b604082019050919050565b60006020820190508181036000830152612ebb81612e7f565b9050919050565b7f4552433732313a207472616e7366657220746f20746865207a65726f2061646460008201527f7265737300000000000000000000000000000000000000000000000000000000602082015250565b6000612f1e602483612386565b9150612f2982612ec2565b604082019050919050565b60006020820190508181036000830152612f4d81612f11565b9050919050565b7f4552433732313a20617070726f766520746f2063616c6c657200000000000000600082015250565b6000612f8a601983612386565b9150612f9582612f54565b602082019050919050565b60006020820190508181036000830152612fb981612f7d565b9050919050565b7f4552433732313a207472616e7366657220746f206e6f6e20455243373231526560008201527f63656976657220696d706c656d656e7465720000000000000000000000000000602082015250565b600061301c603283612386565b915061302782612fc0565b604082019050919050565b6000602082019050818103600083015261304b8161300f565b9050919050565b7f4552433732313a206d696e7420746f20746865207a65726f2061646472657373600082015250565b6000613088602083612386565b915061309382613052565b602082019050919050565b600060208201905081810360008301526130b78161307b565b9050919050565b7f4552433732313a20746f6b656e20616c7265616479206d696e74656400000000600082015250565b60006130f4601c83612386565b91506130ff826130be565b602082019050919050565b60006020820190508181036000830152613123816130e7565b9050919050565b7f4e487b7100000000000000000000000000000000000000000000000000000000600052601260045260246000fd5b600061316482612436565b915061316f83612436565b92508261317f5761317e61312a565b5b828204905092915050565b600061319582612436565b91506131a083612436565b9250826131b0576131af61312a565b5b828206905092915050565b600082825260208201905092915050565b60006131d782612cbd565b6131e181856131bb565b93506131f1818560208601612397565b6131fa816123ca565b840191505092915050565b600060808201905061321a60008301876124cb565b61322760208301866124cb565b61323460408301856125b4565b818103606083015261324681846131cc565b905095945050505050565b600081519050613260816122ec565b92915050565b60006020828403121561327c5761327b6122b6565b5b600061328a84828501613251565b9150509291505056fea26469706673582212209b149b7c57ba9f5a644df5c2fbafa75587d47ba627accdcab8c7a0555bffabd264736f6c63430008090033",
  "linkReferences": {},
  "deployedLinkReferences": {}
}