{
  "_format": "hh-sol-artifact-1",
  "contractName": "WeaponFactory",
  "sourceName": "contracts/WeaponFactory.sol",
  "abi": [
    {
      "inputs": [],
      "stateMutability": "nonpayable",
      "type": "constructor"
    },
    {
      "anonymous": false,
      "inputs": [
        {
          "indexed": true,
          "internalType": "address",
          "name": "owner",
          "type": "address"
        },
        {
          "indexed": true,
          "internalType": "address",
          "name": "approved",
          "type": "address"
        },
        {
          "indexed": true,
          "internalType": "uint256",
          "name": "tokenId",
          "type": "uint256"
        }
      ],
      "name": "Approval",
      "type": "event"
    },
    {
      "anonymous": false,
      "inputs": [
        {
          "indexed": true,
          "internalType": "address",
          "name": "owner",
          "type": "address"
        },
        {
          "indexed": true,
          "internalType": "address",
          "name": "operator",
          "type": "address"
        },
        {
          "indexed": false,
          "internalType": "bool",
          "name": "approved",
          "type": "bool"
        }
      ],
      "name": "ApprovalForAll",
      "type": "event"
    },
    {
      "anonymous": false,
      "inputs": [
        {
          "indexed": true,
          "internalType": "address",
          "name": "from",
          "type": "address"
        },
        {
          "indexed": true,
          "internalType": "address",
          "name": "to",
          "type": "address"
        },
        {
          "indexed": true,
          "internalType": "uint256",
          "name": "tokenId",
          "type": "uint256"
        }
      ],
      "name": "Transfer",
      "type": "event"
    },
    {
      "inputs": [
        {
          "internalType": "address",
          "name": "to",
          "type": "address"
        },
        {
          "internalType": "uint256",
          "name": "tokenId",
          "type": "uint256"
        }
      ],
      "name": "approve",
      "outputs": [],
      "stateMutability": "nonpayable",
      "type": "function"
    },
    {
      "inputs": [
        {
          "internalType": "address",
          "name": "_addr",
          "type": "address"
        }
      ],
      "name": "balanceOf",
      "outputs": [
        {
          "internalType": "uint256",
          "name": "",
          "type": "uint256"
        }
      ],
      "stateMutability": "view",
      "type": "function"
    },
    {
      "inputs": [
        {
          "internalType": "address",
          "name": "player",
          "type": "address"
        }
      ],
      "name": "createNewWeapon",
      "outputs": [
        {
          "internalType": "uint8",
          "name": "",
          "type": "uint8"
        }
      ],
      "stateMutability": "nonpayable",
      "type": "function"
    },
    {
      "inputs": [
        {
          "internalType": "uint256",
          "name": "_weaponId",
          "type": "uint256"
        }
      ],
      "name": "damage",
      "outputs": [],
      "stateMutability": "nonpayable",
      "type": "function"
    },
    {
      "inputs": [
        {
          "internalType": "uint256",
          "name": "_weaponId",
          "type": "uint256"
        }
      ],
      "name": "durabilityOf",
      "outputs": [
        {
          "internalType": "uint8",
          "name": "",
          "type": "uint8"
        }
      ],
      "stateMutability": "view",
      "type": "function"
    },
    {
      "inputs": [
        {
          "internalType": "uint256",
          "name": "tokenId",
          "type": "uint256"
        }
      ],
      "name": "getApproved",
      "outputs": [
        {
          "internalType": "address",
          "name": "",
          "type": "address"
        }
      ],
      "stateMutability": "view",
      "type": "function"
    },
    {
      "inputs": [
        {
          "internalType": "address",
          "name": "owner",
          "type": "address"
        },
        {
          "internalType": "address",
          "name": "operator",
          "type": "address"
        }
      ],
      "name": "isApprovedForAll",
      "outputs": [
        {
          "internalType": "bool",
          "name": "",
          "type": "bool"
        }
      ],
      "stateMutability": "view",
      "type": "function"
    },
    {
      "inputs": [],
      "name": "name",
      "outputs": [
        {
          "internalType": "string",
          "name": "",
          "type": "string"
        }
      ],
      "stateMutability": "view",
      "type": "function"
    },
    {
      "inputs": [
        {
          "internalType": "uint256",
          "name": "_weaponId",
          "type": "uint256"
        }
      ],
      "name": "ownerOf",
      "outputs": [
        {
          "internalType": "address",
          "name": "",
          "type": "address"
        }
      ],
      "stateMutability": "view",
      "type": "function"
    },
    {
      "inputs": [
        {
          "internalType": "address",
          "name": "_requester",
          "type": "address"
        },
        {
          "internalType": "uint256",
          "name": "_weaponId",
          "type": "uint256"
        }
      ],
      "name": "repairWeapon",
      "outputs": [],
      "stateMutability": "nonpayable",
      "type": "function"
    },
    {
      "inputs": [
        {
          "internalType": "address",
          "name": "from",
          "type": "address"
        },
        {
          "internalType": "address",
          "name": "to",
          "type": "address"
        },
        {
          "internalType": "uint256",
          "name": "tokenId",
          "type": "uint256"
        }
      ],
      "name": "safeTransferFrom",
      "outputs": [],
      "stateMutability": "nonpayable",
      "type": "function"
    },
    {
      "inputs": [
        {
          "internalType": "address",
          "name": "from",
          "type": "address"
        },
        {
          "internalType": "address",
          "name": "to",
          "type": "address"
        },
        {
          "internalType": "uint256",
          "name": "tokenId",
          "type": "uint256"
        },
        {
          "internalType": "bytes",
          "name": "data",
          "type": "bytes"
        }
      ],
      "name": "safeTransferFrom",
      "outputs": [],
      "stateMutability": "nonpayable",
      "type": "function"
    },
    {
      "inputs": [
        {
          "internalType": "address",
          "name": "operator",
          "type": "address"
        },
        {
          "internalType": "bool",
          "name": "approved",
          "type": "bool"
        }
      ],
      "name": "setApprovalForAll",
      "outputs": [],
      "stateMutability": "nonpayable",
      "type": "function"
    },
    {
      "inputs": [
        {
          "internalType": "uint256",
          "name": "_weaponId",
          "type": "uint256"
        }
      ],
      "name": "setWeaponOwner",
      "outputs": [],
      "stateMutability": "nonpayable",
      "type": "function"
    },
    {
      "inputs": [
        {
          "internalType": "bytes4",
          "name": "interfaceId",
          "type": "bytes4"
        }
      ],
      "name": "supportsInterface",
      "outputs": [
        {
          "internalType": "bool",
          "name": "",
          "type": "bool"
        }
      ],
      "stateMutability": "view",
      "type": "function"
    },
    {
      "inputs": [],
      "name": "symbol",
      "outputs": [
        {
          "internalType": "string",
          "name": "",
          "type": "string"
        }
      ],
      "stateMutability": "view",
      "type": "function"
    },
    {
      "inputs": [
        {
          "internalType": "uint256",
          "name": "tokenId",
          "type": "uint256"
        }
      ],
      "name": "tokenURI",
      "outputs": [
        {
          "internalType": "string",
          "name": "",
          "type": "string"
        }
      ],
      "stateMutability": "view",
      "type": "function"
    },
    {
      "inputs": [
        {
          "internalType": "address",
          "name": "from",
          "type": "address"
        },
        {
          "internalType": "address",
          "name": "to",
          "type": "address"
        },
        {
          "internalType": "uint256",
          "name": "tokenId",
          "type": "uint256"
        }
      ],
      "name": "transferFrom",
      "outputs": [],
      "stateMutability": "nonpayable",
      "type": "function"
    },
    {
      "inputs": [
        {
          "internalType": "uint256",
          "name": "",
          "type": "uint256"
        }
      ],
      "name": "weapons",
      "outputs": [
        {
          "internalType": "uint256",
          "name": "tokenId",
          "type": "uint256"
        },
        {
          "internalType": "uint8",
          "name": "maxDurability",
          "type": "uint8"
        },
        {
          "internalType": "uint8",
          "name": "durability",
          "type": "uint8"
        }
      ],
      "stateMutability": "view",
      "type": "function"
    }
  ],
  "bytecode": "0x60806040523480156200001157600080fd5b506040518060400160405280600681526020017f576561706f6e00000000000000000000000000000000000000000000000000008152506040518060400160405280600381526020017f57504e0000000000000000000000000000000000000000000000000000000000815250816000908051906020019062000096929190620000b8565b508060019080519060200190620000af929190620000b8565b505050620001cd565b828054620000c69062000197565b90600052602060002090601f016020900481019282620000ea576000855562000136565b82601f106200010557805160ff191683800117855562000136565b8280016001018555821562000136579182015b828111156200013557825182559160200191906001019062000118565b5b50905062000145919062000149565b5090565b5b80821115620001645760008160009055506001016200014a565b5090565b7f4e487b7100000000000000000000000000000000000000000000000000000000600052602260045260246000fd5b60006002820490506001821680620001b057607f821691505b60208210811415620001c757620001c662000168565b5b50919050565b61295d80620001dd6000396000f3fe608060405234801561001057600080fd5b50600436106101215760003560e01c806370a08231116100ad578063b88d4fde11610071578063b88d4fde1461032c578063ba882af814610348578063c87b56dd14610378578063e0feafc1146103a8578063e985e9c5146103c457610121565b806370a0823114610276578063774e7305146102a657806395d89b41146102c2578063a22cb465146102e0578063ab7fb50e146102fc57610121565b806323b872dd116100f457806323b872dd146101c057806342842e0e146101dc578063555e73c8146101f8578063573265dd1461022a5780636352211e1461024657610121565b806301ffc9a71461012657806306fdde0314610156578063081812fc14610174578063095ea7b3146101a4575b600080fd5b610140600480360381019061013b9190611aac565b6103f4565b60405161014d9190611af4565b60405180910390f35b61015e6104d6565b60405161016b9190611ba8565b60405180910390f35b61018e60048036038101906101899190611c00565b610568565b60405161019b9190611c6e565b60405180910390f35b6101be60048036038101906101b99190611cb5565b6105ae565b005b6101da60048036038101906101d59190611cf5565b6106c6565b005b6101f660048036038101906101f19190611cf5565b610726565b005b610212600480360381019061020d9190611c00565b610746565b60405161022193929190611d73565b60405180910390f35b610244600480360381019061023f9190611c00565b61079a565b005b610260600480360381019061025b9190611c00565b6107f7565b60405161026d9190611c6e565b60405180910390f35b610290600480360381019061028b9190611daa565b610834565b60405161029d9190611dd7565b60405180910390f35b6102c060048036038101906102bb9190611c00565b61087d565b005b6102ca610927565b6040516102d79190611ba8565b60405180910390f35b6102fa60048036038101906102f59190611e1e565b6109b9565b005b61031660048036038101906103119190611c00565b6109cf565b6040516103239190611e5e565b60405180910390f35b61034660048036038101906103419190611fae565b610a0b565b005b610362600480360381019061035d9190611daa565b610a6d565b60405161036f9190611e5e565b60405180910390f35b610392600480360381019061038d9190611c00565b610b51565b60405161039f9190611ba8565b60405180910390f35b6103c260048036038101906103bd9190611cb5565b610bb9565b005b6103de60048036038101906103d99190612031565b610d12565b6040516103eb9190611af4565b60405180910390f35b60007f80ac58cd000000000000000000000000000000000000000000000000000000007bffffffffffffffffffffffffffffffffffffffffffffffffffffffff1916827bffffffffffffffffffffffffffffffffffffffffffffffffffffffff191614806104bf57507f5b5e139f000000000000000000000000000000000000000000000000000000007bffffffffffffffffffffffffffffffffffffffffffffffffffffffff1916827bffffffffffffffffffffffffffffffffffffffffffffffffffffffff1916145b806104cf57506104ce82610da6565b5b9050919050565b6060600080546104e5906120a0565b80601f0160208091040260200160405190810160405280929190818152602001828054610511906120a0565b801561055e5780601f106105335761010080835404028352916020019161055e565b820191906000526020600020905b81548152906001019060200180831161054157829003601f168201915b5050505050905090565b600061057382610e10565b6004600083815260200190815260200160002060009054906101000a900473ffffffffffffffffffffffffffffffffffffffff169050919050565b60006105b982610e5b565b90508073ffffffffffffffffffffffffffffffffffffffff168373ffffffffffffffffffffffffffffffffffffffff16141561062a576040517f08c379a000000000000000000000000000000000000000000000000000000000815260040161062190612144565b60405180910390fd5b8073ffffffffffffffffffffffffffffffffffffffff16610649610f0d565b73ffffffffffffffffffffffffffffffffffffffff161480610678575061067781610672610f0d565b610d12565b5b6106b7576040517f08c379a00000000000000000000000000000000000000000000000000000000081526004016106ae906121d6565b60405180910390fd5b6106c18383610f15565b505050565b6106d76106d1610f0d565b82610fce565b610716576040517f08c379a000000000000000000000000000000000000000000000000000000000815260040161070d90612268565b60405180910390fd5b610721838383611063565b505050565b61074183838360405180602001604052806000815250610a0b565b505050565b6009818154811061075657600080fd5b90600052602060002090600202016000915090508060000154908060010160009054906101000a900460ff16908060010160019054906101000a900460ff16905083565b6005600982815481106107b0576107af612288565b5b906000526020600020906002020160010160018282829054906101000a900460ff166107dc91906122e6565b92506101000a81548160ff021916908360ff16021790555050565b60006007600083815260200190815260200160002060009054906101000a900473ffffffffffffffffffffffffffffffffffffffff169050919050565b6000600860008373ffffffffffffffffffffffffffffffffffffffff1673ffffffffffffffffffffffffffffffffffffffff168152602001908152602001600020549050919050565b336007600083815260200190815260200160002060006101000a81548173ffffffffffffffffffffffffffffffffffffffff021916908373ffffffffffffffffffffffffffffffffffffffff160217905550600860003373ffffffffffffffffffffffffffffffffffffffff1673ffffffffffffffffffffffffffffffffffffffff168152602001908152602001600020600081548092919061091f9061231a565b919050555050565b606060018054610936906120a0565b80601f0160208091040260200160405190810160405280929190818152602001828054610962906120a0565b80156109af5780601f10610984576101008083540402835291602001916109af565b820191906000526020600020905b81548152906001019060200180831161099257829003601f168201915b5050505050905090565b6109cb6109c4610f0d565b83836112bf565b5050565b6000600982815481106109e5576109e4612288565b5b906000526020600020906002020160010160019054906101000a900460ff169050919050565b610a1c610a16610f0d565b83610fce565b610a5b576040517f08c379a0000000000000000000000000000000000000000000000000000000008152600401610a5290612268565b60405180910390fd5b610a678484848461142c565b50505050565b600080610a7a6006611488565b9050610a89838260ff166114a3565b600960405180606001604052808360ff1681526020018360ff610aac91906122e6565b60ff1681526020018360ff610ac191906122e6565b60ff1681525090806001815401808255809150506001900390600052602060002090600202016000909190919091506000820151816000015560208201518160010160006101000a81548160ff021916908360ff16021790555060408201518160010160016101000a81548160ff021916908360ff1602179055505050610b486006611665565b80915050919050565b6060610b5c82610e10565b6000610b66611698565b90506000815111610b865760405180602001604052806000815250610bb1565b80610b90846116af565b604051602001610ba192919061239f565b6040516020818303038152906040525b915050919050565b81816007600082815260200190815260200160002060009054906101000a900473ffffffffffffffffffffffffffffffffffffffff1673ffffffffffffffffffffffffffffffffffffffff168273ffffffffffffffffffffffffffffffffffffffff1614610c2657600080fd5b60098381548110610c3a57610c39612288565b5b906000526020600020906002020160010160019054906101000a900460ff1660ff1660098481548110610c7057610c6f612288565b5b906000526020600020906002020160010160009054906101000a900460ff1660ff1611610c9c57600080fd5b60098381548110610cb057610caf612288565b5b906000526020600020906002020160010160009054906101000a900460ff1660098481548110610ce357610ce2612288565b5b906000526020600020906002020160010160016101000a81548160ff021916908360ff16021790555050505050565b6000600560008473ffffffffffffffffffffffffffffffffffffffff1673ffffffffffffffffffffffffffffffffffffffff16815260200190815260200160002060008373ffffffffffffffffffffffffffffffffffffffff1673ffffffffffffffffffffffffffffffffffffffff16815260200190815260200160002060009054906101000a900460ff16905092915050565b60007f01ffc9a7000000000000000000000000000000000000000000000000000000007bffffffffffffffffffffffffffffffffffffffffffffffffffffffff1916827bffffffffffffffffffffffffffffffffffffffffffffffffffffffff1916149050919050565b610e1981611810565b610e58576040517f08c379a0000000000000000000000000000000000000000000000000000000008152600401610e4f9061240f565b60405180910390fd5b50565b6000806002600084815260200190815260200160002060009054906101000a900473ffffffffffffffffffffffffffffffffffffffff169050600073ffffffffffffffffffffffffffffffffffffffff168173ffffffffffffffffffffffffffffffffffffffff161415610f04576040517f08c379a0000000000000000000000000000000000000000000000000000000008152600401610efb9061240f565b60405180910390fd5b80915050919050565b600033905090565b816004600083815260200190815260200160002060006101000a81548173ffffffffffffffffffffffffffffffffffffffff021916908373ffffffffffffffffffffffffffffffffffffffff160217905550808273ffffffffffffffffffffffffffffffffffffffff16610f8883610e5b565b73ffffffffffffffffffffffffffffffffffffffff167f8c5be1e5ebec7d5bd14f71427d1e84f3dd0314c0f7b2291e5b200ac8c7c3b92560405160405180910390a45050565b600080610fda83610e5b565b90508073ffffffffffffffffffffffffffffffffffffffff168473ffffffffffffffffffffffffffffffffffffffff16148061101c575061101b8185610d12565b5b8061105a57508373ffffffffffffffffffffffffffffffffffffffff1661104284610568565b73ffffffffffffffffffffffffffffffffffffffff16145b91505092915050565b8273ffffffffffffffffffffffffffffffffffffffff1661108382610e5b565b73ffffffffffffffffffffffffffffffffffffffff16146110d9576040517f08c379a00000000000000000000000000000000000000000000000000000000081526004016110d0906124a1565b60405180910390fd5b600073ffffffffffffffffffffffffffffffffffffffff168273ffffffffffffffffffffffffffffffffffffffff161415611149576040517f08c379a000000000000000000000000000000000000000000000000000000000815260040161114090612533565b60405180910390fd5b61115483838361187c565b6001600860008573ffffffffffffffffffffffffffffffffffffffff1673ffffffffffffffffffffffffffffffffffffffff16815260200190815260200160002060008282546111a49190612553565b925050819055506001600860008473ffffffffffffffffffffffffffffffffffffffff1673ffffffffffffffffffffffffffffffffffffffff16815260200190815260200160002060008282546111fb9190612587565b92505081905550816007600083815260200190815260200160002060006101000a81548173ffffffffffffffffffffffffffffffffffffffff021916908373ffffffffffffffffffffffffffffffffffffffff160217905550808273ffffffffffffffffffffffffffffffffffffffff168473ffffffffffffffffffffffffffffffffffffffff167fddf252ad1be2c89b69c2b068fc378daa952ba7f163c4a11628f55a4df523b3ef60405160405180910390a46112ba838383611881565b505050565b8173ffffffffffffffffffffffffffffffffffffffff168373ffffffffffffffffffffffffffffffffffffffff16141561132e576040517f08c379a000000000000000000000000000000000000000000000000000000000815260040161132590612629565b60405180910390fd5b80600560008573ffffffffffffffffffffffffffffffffffffffff1673ffffffffffffffffffffffffffffffffffffffff16815260200190815260200160002060008473ffffffffffffffffffffffffffffffffffffffff1673ffffffffffffffffffffffffffffffffffffffff16815260200190815260200160002060006101000a81548160ff0219169083151502179055508173ffffffffffffffffffffffffffffffffffffffff168373ffffffffffffffffffffffffffffffffffffffff167f17307eab39ab6107e8899845ad3d59bd9653f200f220920489ca2b5937696c318360405161141f9190611af4565b60405180910390a3505050565b611437848484611063565b61144384848484611886565b611482576040517f08c379a0000000000000000000000000000000000000000000000000000000008152600401611479906126bb565b60405180910390fd5b50505050565b60008160000160009054906101000a900460ff169050919050565b600073ffffffffffffffffffffffffffffffffffffffff168273ffffffffffffffffffffffffffffffffffffffff161415611513576040517f08c379a000000000000000000000000000000000000000000000000000000000815260040161150a90612727565b60405180910390fd5b61151c81611810565b1561155c576040517f08c379a000000000000000000000000000000000000000000000000000000000815260040161155390612793565b60405180910390fd5b6001600860008473ffffffffffffffffffffffffffffffffffffffff1673ffffffffffffffffffffffffffffffffffffffff16815260200190815260200160002060008282546115ac9190612587565b92505081905550816007600083815260200190815260200160002060006101000a81548173ffffffffffffffffffffffffffffffffffffffff021916908373ffffffffffffffffffffffffffffffffffffffff160217905550808273ffffffffffffffffffffffffffffffffffffffff16600073ffffffffffffffffffffffffffffffffffffffff167fddf252ad1be2c89b69c2b068fc378daa952ba7f163c4a11628f55a4df523b3ef60405160405180910390a45050565b60018160000160008282829054906101000a900460ff160192506101000a81548160ff021916908360ff16021790555050565b606060405180602001604052806000815250905090565b606060008214156116f7576040518060400160405280600181526020017f3000000000000000000000000000000000000000000000000000000000000000815250905061180b565b600082905060005b600082146117295780806117129061231a565b915050600a8261172291906127e2565b91506116ff565b60008167ffffffffffffffff81111561174557611744611e83565b5b6040519080825280601f01601f1916602001820160405280156117775781602001600182028036833780820191505090505b5090505b60008514611804576001826117909190612553565b9150600a8561179f9190612813565b60306117ab9190612587565b60f81b8183815181106117c1576117c0612288565b5b60200101907effffffffffffffffffffffffffffffffffffffffffffffffffffffffffffff1916908160001a905350600a856117fd91906127e2565b945061177b565b8093505050505b919050565b60008073ffffffffffffffffffffffffffffffffffffffff166002600084815260200190815260200160002060009054906101000a900473ffffffffffffffffffffffffffffffffffffffff1673ffffffffffffffffffffffffffffffffffffffff1614159050919050565b505050565b505050565b60006118a78473ffffffffffffffffffffffffffffffffffffffff16611a1d565b15611a10578373ffffffffffffffffffffffffffffffffffffffff1663150b7a026118d0610f0d565b8786866040518563ffffffff1660e01b81526004016118f29493929190612899565b602060405180830381600087803b15801561190c57600080fd5b505af192505050801561193d57506040513d601f19601f8201168201806040525081019061193a91906128fa565b60015b6119c0573d806000811461196d576040519150601f19603f3d011682016040523d82523d6000602084013e611972565b606091505b506000815114156119b8576040517f08c379a00000000000000000000000000000000000000000000000000000000081526004016119af906126bb565b60405180910390fd5b805181602001fd5b63150b7a0260e01b7bffffffffffffffffffffffffffffffffffffffffffffffffffffffff1916817bffffffffffffffffffffffffffffffffffffffffffffffffffffffff191614915050611a15565b600190505b949350505050565b6000808273ffffffffffffffffffffffffffffffffffffffff163b119050919050565b6000604051905090565b600080fd5b600080fd5b60007fffffffff0000000000000000000000000000000000000000000000000000000082169050919050565b611a8981611a54565b8114611a9457600080fd5b50565b600081359050611aa681611a80565b92915050565b600060208284031215611ac257611ac1611a4a565b5b6000611ad084828501611a97565b91505092915050565b60008115159050919050565b611aee81611ad9565b82525050565b6000602082019050611b096000830184611ae5565b92915050565b600081519050919050565b600082825260208201905092915050565b60005b83811015611b49578082015181840152602081019050611b2e565b83811115611b58576000848401525b50505050565b6000601f19601f8301169050919050565b6000611b7a82611b0f565b611b848185611b1a565b9350611b94818560208601611b2b565b611b9d81611b5e565b840191505092915050565b60006020820190508181036000830152611bc28184611b6f565b905092915050565b6000819050919050565b611bdd81611bca565b8114611be857600080fd5b50565b600081359050611bfa81611bd4565b92915050565b600060208284031215611c1657611c15611a4a565b5b6000611c2484828501611beb565b91505092915050565b600073ffffffffffffffffffffffffffffffffffffffff82169050919050565b6000611c5882611c2d565b9050919050565b611c6881611c4d565b82525050565b6000602082019050611c836000830184611c5f565b92915050565b611c9281611c4d565b8114611c9d57600080fd5b50565b600081359050611caf81611c89565b92915050565b60008060408385031215611ccc57611ccb611a4a565b5b6000611cda85828601611ca0565b9250506020611ceb85828601611beb565b9150509250929050565b600080600060608486031215611d0e57611d0d611a4a565b5b6000611d1c86828701611ca0565b9350506020611d2d86828701611ca0565b9250506040611d3e86828701611beb565b9150509250925092565b611d5181611bca565b82525050565b600060ff82169050919050565b611d6d81611d57565b82525050565b6000606082019050611d886000830186611d48565b611d956020830185611d64565b611da26040830184611d64565b949350505050565b600060208284031215611dc057611dbf611a4a565b5b6000611dce84828501611ca0565b91505092915050565b6000602082019050611dec6000830184611d48565b92915050565b611dfb81611ad9565b8114611e0657600080fd5b50565b600081359050611e1881611df2565b92915050565b60008060408385031215611e3557611e34611a4a565b5b6000611e4385828601611ca0565b9250506020611e5485828601611e09565b9150509250929050565b6000602082019050611e736000830184611d64565b92915050565b600080fd5b600080fd5b7f4e487b7100000000000000000000000000000000000000000000000000000000600052604160045260246000fd5b611ebb82611b5e565b810181811067ffffffffffffffff82111715611eda57611ed9611e83565b5b80604052505050565b6000611eed611a40565b9050611ef98282611eb2565b919050565b600067ffffffffffffffff821115611f1957611f18611e83565b5b611f2282611b5e565b9050602081019050919050565b82818337600083830152505050565b6000611f51611f4c84611efe565b611ee3565b905082815260208101848484011115611f6d57611f6c611e7e565b5b611f78848285611f2f565b509392505050565b600082601f830112611f9557611f94611e79565b5b8135611fa5848260208601611f3e565b91505092915050565b60008060008060808587031215611fc857611fc7611a4a565b5b6000611fd687828801611ca0565b9450506020611fe787828801611ca0565b9350506040611ff887828801611beb565b925050606085013567ffffffffffffffff81111561201957612018611a4f565b5b61202587828801611f80565b91505092959194509250565b6000806040838503121561204857612047611a4a565b5b600061205685828601611ca0565b925050602061206785828601611ca0565b9150509250929050565b7f4e487b7100000000000000000000000000000000000000000000000000000000600052602260045260246000fd5b600060028204905060018216806120b857607f821691505b602082108114156120cc576120cb612071565b5b50919050565b7f4552433732313a20617070726f76616c20746f2063757272656e74206f776e6560008201527f7200000000000000000000000000000000000000000000000000000000000000602082015250565b600061212e602183611b1a565b9150612139826120d2565b604082019050919050565b6000602082019050818103600083015261215d81612121565b9050919050565b7f4552433732313a20617070726f76652063616c6c6572206973206e6f7420746f60008201527f6b656e206f776e6572206e6f7220617070726f76656420666f7220616c6c0000602082015250565b60006121c0603e83611b1a565b91506121cb82612164565b604082019050919050565b600060208201905081810360008301526121ef816121b3565b9050919050565b7f4552433732313a2063616c6c6572206973206e6f7420746f6b656e206f776e6560008201527f72206e6f7220617070726f766564000000000000000000000000000000000000602082015250565b6000612252602e83611b1a565b915061225d826121f6565b604082019050919050565b6000602082019050818103600083015261228181612245565b9050919050565b7f4e487b7100000000000000000000000000000000000000000000000000000000600052603260045260246000fd5b7f4e487b7100000000000000000000000000000000000000000000000000000000600052601160045260246000fd5b60006122f182611d57565b91506122fc83611d57565b92508282101561230f5761230e6122b7565b5b828203905092915050565b600061232582611bca565b91507fffffffffffffffffffffffffffffffffffffffffffffffffffffffffffffffff821415612358576123576122b7565b5b600182019050919050565b600081905092915050565b600061237982611b0f565b6123838185612363565b9350612393818560208601611b2b565b80840191505092915050565b60006123ab828561236e565b91506123b7828461236e565b91508190509392505050565b7f4552433732313a20696e76616c696420746f6b656e2049440000000000000000600082015250565b60006123f9601883611b1a565b9150612404826123c3565b602082019050919050565b60006020820190508181036000830152612428816123ec565b9050919050565b7f4552433732313a207472616e736665722066726f6d20696e636f72726563742060008201527f6f776e6572000000000000000000000000000000000000000000000000000000602082015250565b600061248b602583611b1a565b91506124968261242f565b604082019050919050565b600060208201905081810360008301526124ba8161247e565b9050919050565b7f4552433732313a207472616e7366657220746f20746865207a65726f2061646460008201527f7265737300000000000000000000000000000000000000000000000000000000602082015250565b600061251d602483611b1a565b9150612528826124c1565b604082019050919050565b6000602082019050818103600083015261254c81612510565b9050919050565b600061255e82611bca565b915061256983611bca565b92508282101561257c5761257b6122b7565b5b828203905092915050565b600061259282611bca565b915061259d83611bca565b9250827fffffffffffffffffffffffffffffffffffffffffffffffffffffffffffffffff038211156125d2576125d16122b7565b5b828201905092915050565b7f4552433732313a20617070726f766520746f2063616c6c657200000000000000600082015250565b6000612613601983611b1a565b915061261e826125dd565b602082019050919050565b6000602082019050818103600083015261264281612606565b9050919050565b7f4552433732313a207472616e7366657220746f206e6f6e20455243373231526560008201527f63656976657220696d706c656d656e7465720000000000000000000000000000602082015250565b60006126a5603283611b1a565b91506126b082612649565b604082019050919050565b600060208201905081810360008301526126d481612698565b9050919050565b7f4552433732313a206d696e7420746f20746865207a65726f2061646472657373600082015250565b6000612711602083611b1a565b915061271c826126db565b602082019050919050565b6000602082019050818103600083015261274081612704565b9050919050565b7f4552433732313a20746f6b656e20616c7265616479206d696e74656400000000600082015250565b600061277d601c83611b1a565b915061278882612747565b602082019050919050565b600060208201905081810360008301526127ac81612770565b9050919050565b7f4e487b7100000000000000000000000000000000000000000000000000000000600052601260045260246000fd5b60006127ed82611bca565b91506127f883611bca565b925082612808576128076127b3565b5b828204905092915050565b600061281e82611bca565b915061282983611bca565b925082612839576128386127b3565b5b828206905092915050565b600081519050919050565b600082825260208201905092915050565b600061286b82612844565b612875818561284f565b9350612885818560208601611b2b565b61288e81611b5e565b840191505092915050565b60006080820190506128ae6000830187611c5f565b6128bb6020830186611c5f565b6128c86040830185611d48565b81810360608301526128da8184612860565b905095945050505050565b6000815190506128f481611a80565b92915050565b6000602082840312156129105761290f611a4a565b5b600061291e848285016128e5565b9150509291505056fea26469706673582212206eea33e2f24f882e2ff7555c6ace42e2bed0b5ca1a45faf59c6b70aae6b2388564736f6c63430008090033",
  "linkReferences": {},
  "deployedLinkReferences": {}
}